:0400000051EF00F0CC
:0C000800FACF12F0FBCF13F053ED00F024
:10001800D8CF01F0E8CF02F0E0CF03F0FACF04F038
:10002800FBCF05F0E9CF06F0EACF07F0E1CF08F003
:10003800E2CF09F0D9CF0AF0DACF0BF0F3CF0CF00A
:10004800F4CF0DF0F6CF0EF0F7CF0FF0F8CF10F099
:10005800F5CF11F011C0F5FF10C0F8FF0FC0F7FF82
:100068000EC0F6FF0DC0F4FF0CC0F3FF0BC0DAFFA3
:100078000AC0D9FF09C0E2FF08C0E1FF07C0EAFFD4
:1000880006C0E9FF05C0FBFF04C0FAFF03C0E0FF9C
:1000980002C0E8FF01C0D8FF10002FEF01F00600F2
:1000A800E9CF14F0EACF15F0E1CF16F0E2CF17F060
:1000B800D9CF18F0DACF19F0F3CF1AF0F4CF1BF03C
:1000C800F6CF1CF0F7CF1DF0F8CF1EF0F5CF1FF0DC
:1000D8001FC0F5FF1EC0F8FF1DC0F7FF1CC0F6FFCC
:1000E8001BC0F4FF1AC0F3FF19C0DAFF18C0D9FF0C
:1000F80017C0E2FF16C0E1FF15C0EAFF14C0E9FF10
:1001080013C0FBFF12C0FAFF1100000EC26E000EF2
:10011800C06ED89021303C0BC26E21C023F0233A28
:10012800F00E2316300E231622500F0B2310C16E2B
:1001380020C023F0D8902336D8902336380E2316C3
:1001480020C024F0243A0F0E2416070E241620503F
:10015800800B24102310C06E21AE03D09E9C9D8C72
:10016800F28CC28012003F0EC716000EC66E2050D9
:10017800C6122250C71205D0C78C15D0C78CC688A6
:1001880012D02150000AD8B4F7D7020AD8B4F6D74B
:10019800010AD8B4F4D707D09486928A0CD09486F2
:1001A8000AD0949608D02050040AD8B4F5D7010A8A
:1001B800D8B4F5D7F6D79488949AC68A12000A0E4E
:1001C800C16E010E926E000E936E34EC01F0256E36
:1001D800D30E206E2550266E040E216E2650276EF3
:1001E800FF0E226E275089EC00F0C69A256E000E8D
:1001F800206E2550266E010E216E2650276E000EA9
:10020800226E2750B7EC00F0120037EC01F0E3EC57
:1002180000F0286E000E296E28502928D8B4F9D786
:1002280029C020F021EC01F00009D8A4F9D7FA0E72
:1002380000F0E82EFDD7292AF0D7C9CF21F09E96E5
:10024800C69E20C0C9FFC6AE02D0FF0E03D09EA630
:10025800FED7000E1200000EF86E000109EF01F043
:08026800C2909D9C12001200DF
:020000040020DA
:08000000FFFFFFFFFFFFFFFF00
:020000040030CA
:0E000000FF041F1FFF8185FF0FC00FE00F40A0
:00000001FF
