:0400000051EF00F0CC
:0C000800FACF1AF0FBCF1BF010ED01F056
:10001800D8CF01F0E8CF02F0E0CF03F0FACF04F038
:10002800FBCF05F0E9CF06F0EACF07F0E1CF08F003
:10003800E2CF09F0D9CF0AF0DACF0BF0F3CF0CF00A
:10004800F4CF0DF0F6CF0EF0F7CF0FF0F8CF10F099
:10005800F5CF11F011C0F5FF10C0F8FF0FC0F7FF82
:100068000EC0F6FF0DC0F4FF0CC0F3FF0BC0DAFFA3
:100078000AC0D9FF09C0E2FF08C0E1FF07C0EAFFD4
:1000880006C0E9FF05C0FBFF04C0FAFF03C0E0FF9C
:1000980002C0E8FF01C0D8FF10004DEF03F07FEC6D
:1000A80003F049EC02F06050D8B41FD0A1EC02F084
:1000B800000E366E000E356E3650800A800F060E22
:1000C800D8B4355CD8B00BD0630E3524D96E000E89
:1000D8003620DA6E000EDF6E354A362AEDD7336EDB
:1000E800000E606E33508174DED7F2A4DCD7336E15
:1000F800010E2A6E3350B3EC01F0336E020E2A6EF5
:100108003350B3EC01F0336E030E2A6E3350B3EC68
:1001180001F0336E040E2A6E3350B3EC01F0336EE7
:10012800000E2A6E3350346E090E2B6E3450EEECEE
:1001380002F0A60EE82EFED700D0336E000E296E10
:10014800335012EC03F0436EA60EE82EFED700D013
:10015800336E000E296E335012EC03F0446E070E16
:10016800336E7D0EE82EFED7332EFCD7336E000E8D
:100178002A6E3350346E0A0E2B6E3450EEEC02F0B9
:10018800A60EE82EFED700D0336E000E296E33502F
:1001980012EC03F0456EA60EE82EFED700D0336EA3
:1001A800000E296E335012EC03F0466E070E336EC4
:1001B8007D0EE82EFED7332EFCD7336E000E2A6E46
:1001C8003350346E0B0E2B6E3450EEEC02F0A60E4C
:1001D800E82EFED700D0336E000E296E335012EC95
:1001E80003F0476EA60EE82EFED700D0336E000E41
:1001F800296E335012EC03F0486E070E336E7D0EF5
:10020800E82EFED7332EFCD7F294000E296E000E8E
:10021800286E61EC03F047D70600E9CF1CF0EACF5F
:100228001DF0E1CF1EF0E2CF1FF0D9CF20F0DACFDA
:1002380021F0F3CF22F0F4CF23F0F6CF24F0F7CF5C
:1002480025F0F8CF26F0F5CF27F09EAA01D001D0EF
:1002580022D0000E146E630E136E196E060E156E04
:100268001950D6EC02F063504E0AD8A401D001D040
:1002780012D064504E0AD8A401D001D00CD06550D9
:100288004E0AD8A401D001D006D0196E010E606EB6
:10029800195001D000D027C0F5FF26C0F8FF25C0AF
:1002A800F7FF24C0F6FF23C0F4FF22C0F3FF21C0EC
:1002B800DAFF20C0D9FF1FC0E2FF1EC0E1FF1DC04A
:1002C800EAFF1CC0E9FF1BC0FBFF1AC0FAFF1100C0
:1002D8009F8A000E2D6E000E2C6E2D50800A800F06
:1002E800060ED8B42C5CD8B00BD0630E2C24D96E73
:1002F800000E2D20DA6E000EDF6E2C4A2D2AEDD767
:10030800000E2F6E000E2E6E2F50800A800F280EC2
:10031800D8B42E5CD8B00BD0370E2E24D96E000E70
:100328002F20DA6E000EDF6E2E4A2F2AEDD72B6EA5
:100338004E0E376E2B502B6E4E0E386E2B502B6E8A
:100348004E0E396E2B502B6E5C0E286E2B50000E05
:100358002A6E200E296EEDEC01F09F8A12002B6E9A
:10036800010E286E2B50BDEC02F07DEC03F077EC0B
:1003780003F00009D8A4FBD772EC03F028C02CF0D6
:1003880029C02DF018D02D50030B3B6E2CC03CF02B
:100398001FD02D50030B3D6E2CC03EF019D02D50B0
:1003A800030B3F6E2CC040F013D02D50030B416E51
:1003B8002CC042F00DD02A50010AD8B4E4D7030A61
:1003C800D8B4E7D7010AD8B4EAD7070AD8B4EDD722
:1003D8001200000EAC6E000EAB6E28B0AC8828A2DE
:1003E80002D0AC8CAB8C28B4AC8E28A602D0AB88DB
:1003F80001D0AB8A28B8AC849E9828BAAB8628ACC2
:1004080002D09D8A01D09D9A9E9A28AE02D09D88DE
:1004180001D09D9829C0AFFF2A50B06EAC8AAB8E30
:10042800949C948EACB8ACBE01D0948C1200000E93
:10043800C26E000EC06ED89029303C0BC26E29C027
:100448002BF02B3AF00E2B16300E2B162A500F0BD2
:100458002B10C16E28C02BF0D8902B36D8902B3695
:10046800380E2B1628C02CF02C3A0F0E2C16070E1F
:100478002C162850800B2C102B10C06E29AE03D0E0
:100488009E9C9D8CF28CC28012000A0EC16E010ED9
:10049800926E000E936E000E816E81807AEC03F0EE
:1004A800306ED30E286E3050316E040E296E3150E6
:1004B800326EFF0E2A6E32501BEC02F001EC03F094
:1004C8006CEC01F0306E160E286E305021EC03F003
:1004D800000E296E000E286E61EC03F0D08EF28EAD
:1004E80012003F0EC716000EC66E2850C6122A50BC
:1004F800C71205D0C78C15D0C78CC68812D0295012
:10050800000AD8B4F7D7020AD8B4F6D7010AD8B483
:10051800F4D707D09486928A0CD094860AD0949601
:1005280008D02850040AD8B4F5D7010AD8B4F5D7AA
:10053800F6D79488949AC68A1200000E2A6E000E86
:10054800296E2A50800A800F280ED8B4295CD8B0AA
:100558000FD0370E2924D96E000E2A20DA6EDF500C
:10056800286E6AEC03F0ACA2FED7294A2A2AE9D7FA
:1005780012000AD0819201D08182819412D0819296
:1005880001D0818281840DD02850010AD8B4F2D7D5
:10059800030AD8B4F1D7010AD8B4F1D7070AD8B4F6
:1005A800F0D71200166E000E186E16500ED09EAAC6
:1005B800FED730EC03F0176E13C0D9FF14C0DAFF72
:1005C80017C0DFFF134A142A182A1550185CD8B030
:1005D8001200EDD70AD081902BC028F03FEC03F031
:1005E8000009D8A4F9D7818007D02A50000AD8B4C6
:1005F800F2D7010AD8A4030A12008180C69A2B6E8A
:10060800000E286E2B502C6E010E296E2C502D6E6C
:10061800000E2A6E2D5075EC02F0120005D0819064
:1006280058EC03F0818007D02950000AD8B4F7D7D6
:10063800010AD8A4030AC950120028507F0BD56EAE
:10064800000ED76E000ED66EF29428AE02D0F28A53
:1006580001D0F29AD58E1200F20E5F16ABAC03D021
:100668005F90ABB05F80ABB45F84ABB25F86AECF58
:1006780012F012501200C9CF29F09E96C69E28C0CB
:10068800C9FFC6AE02D0FF0E03D09EA6FED7000E4D
:10069800120000EE37F0320EEE6AE806FDE1000EB9
:1006A800F86E000153EF00F0C9CF28F09E96000EB7
:1006B800C96E9EA6FED7C950120028C02AF029C0CC
:1006C8002BF02BC0D7FF2AC0D6FF1200ACAC03D04A
:1006D800AC905FB2AC8028C0ADFF1200C450296E48
:1006E800C350286E1200C230010B1200C2909D9CAC
:0806F8001200C2821200120080
:020000040020DA
:08000000FFFFFFFFFFFFFFFF00
:020000040030CA
:0E000000FF041F1FFF8185FF0FC00FE00F40A0
:00000001FF
