:0400000051EF00F0CC
:0C000800FACF1AF0FBCF1BF03DED01F029
:10001800D8CF01F0E8CF02F0E0CF03F0FACF04F038
:10002800FBCF05F0E9CF06F0EACF07F0E1CF08F003
:10003800E2CF09F0D9CF0AF0DACF0BF0F3CF0CF00A
:10004800F4CF0DF0F6CF0EF0F7CF0FF0F8CF10F099
:10005800F5CF11F011C0F5FF10C0F8FF0FC0F7FF82
:100068000EC0F6FF0DC0F4FF0CC0F3FF0BC0DAFFA3
:100078000AC0D9FF09C0E2FF08C0E1FF07C0EAFFD4
:1000880006C0E9FF05C0FBFF04C0FAFF03C0E0FF9C
:1000980002C0E8FF01C0D8FF100027EF03F059ECB9
:1000A80003F03CEC02F06150D8B41FD094EC02F09D
:1000B800000E366E000E356E3650800A800F060E22
:1000C800D8B4355CD8B00BD0640E3524D96E000E88
:1000D8003620DA6E000EDF6E354A362AEDD7336EDB
:1000E800000E616E33508174DED7F2A4DCD757EC72
:1000F80003F051EC03F00009D8A4FBD74CEC03F053
:1001080028C06AF029C06BF06B50030B3B6E6AC0C5
:100118003CF0336E000E2A6E3350346E090E2B6E8F
:100128003450C8EC02F0530EE82EFED700F0336EC0
:10013800000E296E3350ECEC02F03D6E336E000E6B
:10014800296E3350ECEC02F03E6E070E336E7D0ED6
:10015800E82EFED7332EFCD7336E000E2A6E3350AE
:10016800346E0A0E2B6E3450C8EC02F0530EE82E93
:10017800FED700F0336E000E296E3350ECEC02F01F
:100188003F6E336E000E296E3350ECEC02F0406E79
:10019800070E336E7D0EE82EFED7332EFCD7336E56
:1001A800000E2A6E3350346E0B0E2B6E3450C8EC92
:1001B80002F0530EE82EFED700F0336E000E296EC3
:1001C8003350ECEC02F0416E336E000E296E335062
:1001D800ECEC02F0426E070E336E7D0EE82EFED771
:1001E800332EFCD7336E000E2A6E3350346E0C0E4D
:1001F8002B6E3450C8EC02F0530EE82EFED700F0F8
:10020800336E000E296E3350ECEC02F0436E336E01
:10021800000E296E3350ECEC02F0446E070E336E7C
:100228007D0EE82EFED7332EFCD7336E000E2A6ED5
:100238003350346E0D0E2B6E3450C8EC02F0530E52
:10024800E82EFED700F0336E000E296E3350ECEC2A
:1002580002F0456E336E000E296E3350ECEC02F05E
:10026800466EF294000E296E000E286E3BEC03F0E9
:100278001AD70600E9CF1CF0EACF1DF0E1CF1EF037
:10028800E2CF1FF0D9CF20F0DACF21F0F3CF22F060
:10029800F4CF23F0F6CF24F0F7CF25F0F8CF26F0EF
:1002A800F5CF27F09EAA01D001D022D0000E146EFF
:1002B800640E136E196E060E156E1950B0EC02F02E
:1002C80064504E0AD8A401D001D012D065504E0A0D
:1002D800D8A401D001D00CD066504E0AD8A401D0C1
:1002E80001D006D0196E010E616E195001D000D0F0
:1002F80027C0F5FF26C0F8FF25C0F7FF24C0F6FF8A
:1003080023C0F4FF22C0F3FF21C0DAFF20C0D9FFC9
:100318001FC0E2FF1EC0E1FF1DC0EAFF1CC0E9FFCD
:100328001BC0FBFF1AC0FAFF11009F8A000E2D6E3A
:10033800000E2C6E2D50800A800F060ED8B42C5C4F
:10034800D8B00BD0640E2C24D96E000E2D20DA6E96
:10035800000EDF6E2C4A2D2AEDD7000E2F6E000EF0
:100368002E6E2F50800A800F290ED8B42E5CD8B07C
:100378000BD0370E2E24D96E000E2F20DA6E000E09
:10038800DF6E2E4A2F2AEDD72B6E4E0E376E2B506E
:100398002B6E4E0E386E2B502B6E4E0E396E2B5028
:1003A8002B6E5C0E286E2B50000E2A6E200E296EC6
:1003B800E0EC01F09F8A1200000EAC6E000EAB6EEE
:1003C80028B0AC8828A202D0AC8CAB8C28B4AC8EF8
:1003D80028A602D0AB8801D0AB8A28B8AC849E98F6
:1003E80028BAAB8628AC02D09D8A01D09D9A9E9AE5
:1003F80028AE02D09D8801D09D9829C0AFFF2A5011
:10040800B06EAC8AAB8E949C948EACB8ACBE01D066
:10041800948C1200000EC26E000EC06ED890293067
:100428003C0BC26E29C02BF02B3AF00E2B16300E67
:100438002B162A500F0B2B10C16E28C02BF0D8900A
:100448002B36D8902B36380E2B1628C02CF02C3A89
:100458000F0E2C16070E2C162850800B2C102B1064
:10046800C06E29AE03D09E9C9D8CF28CC280120077
:100478000A0EC16E010E926E000E936E000E816E12
:10048800818054EC03F0306ED30E286E3050316EFC
:10049800040E296E3150326EFF0E2A6E32500EEC69
:1004A80002F0DBEC02F099EC01F0306E570E286E8A
:1004B8003050FBEC02F0000E296E000E286E3BEC6B
:1004C80003F0D08EF28E12003F0EC716000EC66ED5
:1004D8002850C6122A50C71205D0C78C15D0C78C11
:1004E800C68812D02950000AD8B4F7D7020AD8B45F
:1004F800F6D7010AD8B4F4D707D09486928A0CD0DC
:1005080094860AD0949608D02850040AD8B4F5D70F
:10051800010AD8B4F5D7F6D79488949AC68A1200F7
:10052800000E2A6E000E296E2A50800A800F280EAF
:10053800D8B4295CD8B00FD0370E2924D96E000E54
:100548002A20DA6EDF50286E44EC03F0ACA2FED706
:10055800294A2A2AE9D71200166E000E186E16507C
:100568000ED09EAAFED70AEC03F0176E13C0D9FF6F
:1005780014C0DAFF17C0DFFF134A142A182A1550CF
:10058800185CD8B01200EDD70AD081902BC028F0A3
:1005980019EC03F00009D8A4F9D7818007D02A50B4
:1005A800000AD8B4F2D7010AD8A4030A120081803D
:1005B800C69A2B6E000E286E2B502C6E010E296EDB
:1005C8002C502D6E000E2A6E2D5068EC02F0120091
:1005D80005D0819032EC03F0818007D02950000AC1
:1005E800D8B4F7D7010AD8A4030AC9501200285072
:1005F8007F0BD56E000ED76E000ED66EF29428AE25
:1006080002D0F28A01D0F29AD58E1200F20E60164C
:10061800ABAC03D06090ABB06080ABB46084ABB2DD
:100628006086AECF12F012501200C9CF29F09E9604
:10063800C69E28C0C9FFC6AE02D0FF0E03D09EA634
:10064800FED7000E120000EE37F0350EEE6AE8060F
:10065800FDE1000EF86E000153EF00F0C9CF28F05D
:100668009E96000EC96E9EA6FED7C950120028C0DD
:100678002AF029C02BF02BC0D7FF2AC0D6FF1200C2
:10068800ACAC03D0AC9060B2AC8028C0ADFF120017
:10069800C450296EC350286E1200C230010B1200DC
:0C06A800C2909D9C1200C2821200120041
:020000040020DA
:08000000FFFFFFFFFFFFFFFF00
:020000040030CA
:0E000000FF041F1FFF8185FF0FC00FE00F40A0
:00000001FF
