:0400000051EF00F0CC
:0C000800FACF12F0FBCF13F042ED01F034
:10001800D8CF01F0E8CF02F0E0CF03F0FACF04F038
:10002800FBCF05F0E9CF06F0EACF07F0E1CF08F003
:10003800E2CF09F0D9CF0AF0DACF0BF0F3CF0CF00A
:10004800F4CF0DF0F6CF0EF0F7CF0FF0F8CF10F099
:10005800F5CF11F011C0F5FF10C0F8FF0FC0F7FF82
:100068000EC0F6FF0DC0F4FF0CC0F3FF0BC0DAFFA3
:100078000AC0D9FF09C0E2FF08C0E1FF07C0EAFFD4
:1000880006C0E9FF05C0FBFF04C0FAFF03C0E0FF9C
:1000980002C0E8FF01C0D8FF100033EF02F03BECCC
:1000A80002F0D2EC01F0296E000E226E29502A6E61
:1000B800010E236E2A50EEEC01F0070E296E7D0E1C
:1000C800E82EFED7292EFCD7296E000E216E295066
:1000D8002DEC02F02A6E2A4681502A18FD0B2A18A8
:1000E800816E410E296EEE0EE82EFED7292EFCD722
:1000F80000F0296E000E226E29502A6E030E236E20
:100108002A50EEEC01F0070E296E7D0EE82EFED780
:10011800292EFCD7296E000E216E29502DEC02F0F5
:100128002A6E2A462A4681502A18FB0B2A18816E05
:10013800410E296EEE0EE82EFED7292EFCD700F0D0
:10014800296E000E226E29502A6E050E236E2A5043
:10015800EEEC01F0070E296E7D0EE82EFED7292E53
:10016800FCD7296E000E216E29502DEC02F02A6E64
:100178002A462A462A4681502A18F70B2A18816EE1
:10018800410E296EEE0EE82EFED7292EFCD700F080
:10019800296E000E226E29502A6E060E236E2A50F2
:1001A800EEEC01F0070E296E7D0EE82EFED7292E03
:1001B800FCD7296E000E216E29502DEC02F02A6E14
:1001C8002A462A462A4681502A18F70B2A18816E91
:1001D800410E296EEE0EE82EFED7292EFCD700F030
:1001E800296E000E226E29502A6E040E236E2A50A4
:1001F800EEEC01F0070E296E7D0EE82EFED7292EB3
:10020800FCD7296E000E216E29502DEC02F02A6EC3
:100218002A462A4681502A18FB0B2A18816E410E5D
:10022800296EEE0EE82EFED7292EFCD700F0296E97
:10023800000E226E29502A6E020E236E2A50EEEC12
:1002480001F0070E296E7D0EE82EFED7292EFCD769
:10025800296E000E216E29502DEC02F02A6E2A46D6
:1002680081502A18FD0B2A18816E410E296EEE0E58
:10027800E82EFED7292EFCD700F015D70600E9CFC7
:1002880014F0EACF15F0E1CF16F0E2CF17F0D9CF8E
:1002980018F0DACF19F0F3CF1AF0F4CF1BF0F6CF3D
:1002A8001CF0F7CF1DF0F8CF1EF0F5CF1FF01FC0E0
:1002B800F5FF1EC0F8FF1DC0F7FF1CC0F6FF1BC0EE
:1002C800F4FF1AC0F3FF19C0DAFF18C0D9FF17C02E
:1002D800E2FF16C0E1FF15C0EAFF14C0E9FF13C032
:1002E800FBFF12C0FAFF1100000EC26E000EC06EB6
:1002F800D89021303C0BC26E21C023F0233AF00E77
:100308002316300E231622500F0B2310C16E20C067
:1003180023F0D8902336D8902336380E231620C0E1
:1003280024F0243A0F0E2416070E24162050800BB2
:1003380024102310C06E21AE03D09E9C9D8CF28C9D
:10034800C28012003F0EC716000EC66E2050C6129D
:100358002250C71205D0C78C15D0C78CC68812D0BA
:100368002150000AD8B4F7D7020AD8B4F6D7010A40
:10037800D8B4F4D707D09486928A0CD094860AD041
:10038800949608D02050040AD8B4F5D7010AD8B4F6
:10039800F5D7F6D79488949AC68A12000A0EC16EC9
:1003A800010E926E000E936E000E816E818038EC05
:1003B80002F0266ED30E206E2650276E040E216E94
:1003C8002750286EFF0E226E285078EC01F005ECBD
:1003D80002F01200246E000E256E24500AD081907F
:1003E80023C020F016EC02F00009D8A4F9D78180C8
:1003F80007D02250000AD8B4F2D7010AD8A4030AB9
:1004080012008180C69A236E000E206E2350246E3F
:10041800010E216E2450256E000E226E2550A6EC8A
:1004280001F01200C9CF21F09E96C69E20C0C9FFD8
:10043800C6AE02D0FF0E03D09EA6FED7000E120055
:10044800C9CF20F09E96000EC96E9EA6FED7C95051
:100458001200819024EC02F08180C9501200000E35
:10046800F86E000153EF00F0C2909D9C120012003C
:020000040020DA
:08000000FFFFFFFFFFFFFFFF00
:020000040030CA
:0E000000FF041F1FFF8185FF0FC00FE00F40A0
:00000001FF
