:0400000051EF00F0CC
:0C000800FACF12F0FBCF13F053ED00F024
:10001800D8CF01F0E8CF02F0E0CF03F0FACF04F038
:10002800FBCF05F0E9CF06F0EACF07F0E1CF08F003
:10003800E2CF09F0D9CF0AF0DACF0BF0F3CF0CF00A
:10004800F4CF0DF0F6CF0EF0F7CF0FF0F8CF10F099
:10005800F5CF11F011C0F5FF10C0F8FF0FC0F7FF82
:100068000EC0F6FF0DC0F4FF0CC0F3FF0BC0DAFFA3
:100078000AC0D9FF09C0E2FF08C0E1FF07C0EAFFD4
:1000880006C0E9FF05C0FBFF04C0FAFF03C0E0FF9C
:1000980002C0E8FF01C0D8FF1000DBEF00F0060047
:1000A800E9CF14F0EACF15F0E1CF16F0E2CF17F060
:1000B800D9CF18F0DACF19F0F3CF1AF0F4CF1BF03C
:1000C800F6CF1CF0F7CF1DF0F8CF1EF0F5CF1FF0DC
:1000D8001FC0F5FF1EC0F8FF1DC0F7FF1CC0F6FFCC
:1000E8001BC0F4FF1AC0F3FF19C0DAFF18C0D9FF0C
:1000F80017C0E2FF16C0E1FF15C0EAFF14C0E9FF10
:1001080013C0FBFF12C0FAFF1100000EC26E000EF2
:10011800C06ED89021303C0BC26E21C023F0233A28
:10012800F00E2316300E231622500F0B2310C16E2B
:1001380020C023F0D8902336D8902336380E2316C3
:1001480020C024F0243A0F0E2416070E241620503F
:10015800800B24102310C06E21AE03D09E9C9D8C72
:10016800F28CC280120000EC01F0EDEC00F027C028
:1001780020F028C021F029C022F089EC00F0FCEC26
:1001880000F0F9EC00F00009D8A4FBD7F4EC00F07B
:1001980020C025F021C026F0010E255C020E26584D
:1001A800D8A002D08168EBD7000E816EE8D7FC0E8C
:1001B800F66E010EF76E000EF86E0900F5CF27F007
:1001C8000900F5CF28F00900F5CF29F00001B7EFB5
:1001D80000F00A0EC16E010E926E000E936E1200B0
:1001E800C450216EC350206E1200C230010B1200A1
:0A01F800C2821200D304FF001200BF
:020000040020DA
:08000000FFFFFFFFFFFFFFFF00
:020000040030CA
:0E000000FF041F1FFF8185FF0FC00FE00F40A0
:00000001FF
