:0400000051EF00F0CC
:0C000800FACF12F0FBCF13F053ED00F024
:10001800D8CF01F0E8CF02F0E0CF03F0FACF04F038
:10002800FBCF05F0E9CF06F0EACF07F0E1CF08F003
:10003800E2CF09F0D9CF0AF0DACF0BF0F3CF0CF00A
:10004800F4CF0DF0F6CF0EF0F7CF0FF0F8CF10F099
:10005800F5CF11F011C0F5FF10C0F8FF0FC0F7FF82
:100068000EC0F6FF0DC0F4FF0CC0F3FF0BC0DAFFA3
:100078000AC0D9FF09C0E2FF08C0E1FF07C0EAFFD4
:1000880006C0E9FF05C0FBFF04C0FAFF03C0E0FF9C
:1000980002C0E8FF01C0D8FF1000BBEF00F0060067
:1000A800E9CF14F0EACF15F0E1CF16F0E2CF17F060
:1000B800D9CF18F0DACF19F0F3CF1AF0F4CF1BF03C
:1000C800F6CF1CF0F7CF1DF0F8CF1EF0F5CF1FF0DC
:1000D8001FC0F5FF1EC0F8FF1DC0F7FF1CC0F6FFCC
:1000E8001BC0F4FF1AC0F3FF19C0DAFF18C0D9FF0C
:1000F80017C0E2FF16C0E1FF15C0EAFF14C0E9FF10
:1001080013C0FBFF12C0FAFF1100C084C092C08068
:10011800C09AC088C0862F0E926E030EC216C29077
:10012800060EE82EFED700D0C282C2B2FED7C4CFD8
:1001380020F0216A1200BEEC00F0B2EC00F089EC6D
:1001480000F02150800A800F810ED8B4205CD8A01E
:1001580002D08168F4D7000E816EF1D7F00EC11677
:100168000A0EC112000E926E000E936E120000016C
:060178009FEF00F01200F1
:020000040020DA
:08000000FFFFFFFFFFFFFFFF00
:020000040030CA
:0E000000FF041F1FFF8185FF0FC00FE00F40A0
:00000001FF
