:0400000094EF7FF00A
:10FF2800000197EF7FF006501224016E075013204E
:10FF3800026E08501420036E09501520046E2150DB
:10FF4800800A056E01501E5C02501F58035020584D
:10FF58000450800A0558D8A009D01EC012F01FC04E
:10FF680013F020C014F021C015F0DDD70A50162474
:10FF7800016E0B501720026E0C501820036E0D50A6
:10FF88001920046E2150800A056E01501E5C025033
:10FF98001F58035020580450800A0558D8A009D08B
:10FFA8001EC016F01FC017F020C018F021C019F0AD
:10FFB800BAD70E501A24016E0F501B20026E105033
:10FFC8001C20036E11501D20046E2150800A056EFE
:10FFD80001501E5C02501F58035020580450800ADC
:10FFE8000558D8A0A0D71EC01AF01FC01BF020C00B
:08FFF8001CF021C01DF097D799
:020000040020DA
:08000000FFFFFFFFFFFFFFFF00
:020000040030CA
:0E000000FF071F1FFF8385FF0FC00FE00F409B
:00000001FF
